{
  "contractName": "ERC20God",
  "abi": [
    {
      "constant": true,
      "inputs": [],
      "name": "name",
      "outputs": [
        {
          "name": "",
          "type": "string"
        }
      ],
      "payable": false,
      "stateMutability": "view",
      "type": "function"
    },
    {
      "constant": true,
      "inputs": [],
      "name": "totalSupply",
      "outputs": [
        {
          "name": "",
          "type": "uint256"
        }
      ],
      "payable": false,
      "stateMutability": "view",
      "type": "function"
    },
    {
      "constant": true,
      "inputs": [],
      "name": "decimals",
      "outputs": [
        {
          "name": "",
          "type": "uint8"
        }
      ],
      "payable": false,
      "stateMutability": "view",
      "type": "function"
    },
    {
      "constant": true,
      "inputs": [],
      "name": "owner",
      "outputs": [
        {
          "name": "",
          "type": "address"
        }
      ],
      "payable": false,
      "stateMutability": "view",
      "type": "function"
    },
    {
      "constant": true,
      "inputs": [],
      "name": "symbol",
      "outputs": [
        {
          "name": "",
          "type": "string"
        }
      ],
      "payable": false,
      "stateMutability": "view",
      "type": "function"
    },
    {
      "inputs": [
        {
          "name": "_name",
          "type": "string"
        },
        {
          "name": "_symbol",
          "type": "string"
        },
        {
          "name": "_decimals",
          "type": "uint8"
        },
        {
          "name": "_totalSupply",
          "type": "uint256"
        }
      ],
      "payable": false,
      "stateMutability": "nonpayable",
      "type": "constructor"
    },
    {
      "anonymous": false,
      "inputs": [
        {
          "indexed": true,
          "name": "_from",
          "type": "address"
        },
        {
          "indexed": true,
          "name": "_to",
          "type": "address"
        },
        {
          "indexed": false,
          "name": "amount",
          "type": "uint256"
        }
      ],
      "name": "Transfer",
      "type": "event"
    },
    {
      "constant": false,
      "inputs": [],
      "name": "withdrawalEth",
      "outputs": [
        {
          "name": "",
          "type": "bool"
        }
      ],
      "payable": false,
      "stateMutability": "nonpayable",
      "type": "function"
    },
    {
      "constant": false,
      "inputs": [],
      "name": "tokenSale",
      "outputs": [
        {
          "name": "",
          "type": "bool"
        }
      ],
      "payable": true,
      "stateMutability": "payable",
      "type": "function"
    },
    {
      "constant": false,
      "inputs": [
        {
          "name": "_to",
          "type": "address"
        },
        {
          "name": "_amount",
          "type": "uint256"
        }
      ],
      "name": "transfer",
      "outputs": [
        {
          "name": "",
          "type": "bool"
        }
      ],
      "payable": false,
      "stateMutability": "nonpayable",
      "type": "function"
    },
    {
      "constant": true,
      "inputs": [
        {
          "name": "_owner",
          "type": "address"
        }
      ],
      "name": "balanceOf",
      "outputs": [
        {
          "name": "",
          "type": "uint256"
        }
      ],
      "payable": false,
      "stateMutability": "view",
      "type": "function"
    }
  ],
  "bytecode": "0x608060405234801561001057600080fd5b5060405162000f3d38038062000f3d8339810180604052810190808051820192919060200180518201929190602001805190602001909291908051906020019092919050505033600560006101000a81548173ffffffffffffffffffffffffffffffffffffffff021916908373ffffffffffffffffffffffffffffffffffffffff16021790555083600190805190602001906100ad92919061021e565b5082600290805190602001906100c492919061021e565b5081600360006101000a81548160ff021916908360ff1602179055508073__Safemath______________________________63165c4a169091600360009054906101000a900460ff1660ff16600a0a6040518363ffffffff167c0100000000000000000000000000000000000000000000000000000000028152600401808381526020018281526020019250505060206040518083038186803b15801561016a57600080fd5b505af415801561017e573d6000803e3d6000fd5b505050506040513d602081101561019457600080fd5b8101908080519060200190929190505050600481905550600454600080016000600560009054906101000a900473ffffffffffffffffffffffffffffffffffffffff1673ffffffffffffffffffffffffffffffffffffffff1673ffffffffffffffffffffffffffffffffffffffff16815260200190815260200160002081905550505050506102c3565b828054600181600116156101000203166002900490600052602060002090601f016020900481019282601f1061025f57805160ff191683800117855561028d565b8280016001018555821561028d579182015b8281111561028c578251825591602001919060010190610271565b5b50905061029a919061029e565b5090565b6102c091905b808211156102bc5760008160009055506001016102a4565b5090565b90565b610c6a80620002d36000396000f300608060405260043610610099576000357c0100000000000000000000000000000000000000000000000000000000900463ffffffff16806306fdde031461009e57806318160ddd1461012e578063313ce5671461015957806370a082311461018a5780638da5cb5b146101e157806395d89b4114610238578063a9059cbb146102c8578063b94203101461032d578063d28f95ba1461034f575b600080fd5b3480156100aa57600080fd5b506100b361037e565b6040518080602001828103825283818151815260200191508051906020019080838360005b838110156100f35780820151818401526020810190506100d8565b50505050905090810190601f1680156101205780820380516001836020036101000a031916815260200191505b509250505060405180910390f35b34801561013a57600080fd5b5061014361041c565b6040518082815260200191505060405180910390f35b34801561016557600080fd5b5061016e610422565b604051808260ff1660ff16815260200191505060405180910390f35b34801561019657600080fd5b506101cb600480360381019080803573ffffffffffffffffffffffffffffffffffffffff169060200190929190505050610435565b6040518082815260200191505060405180910390f35b3480156101ed57600080fd5b506101f6610480565b604051808273ffffffffffffffffffffffffffffffffffffffff1673ffffffffffffffffffffffffffffffffffffffff16815260200191505060405180910390f35b34801561024457600080fd5b5061024d6104a6565b6040518080602001828103825283818151815260200191508051906020019080838360005b8381101561028d578082015181840152602081019050610272565b50505050905090810190601f1680156102ba5780820380516001836020036101000a031916815260200191505b509250505060405180910390f35b3480156102d457600080fd5b50610313600480360381019080803573ffffffffffffffffffffffffffffffffffffffff16906020019092919080359060200190929190505050610544565b604051808215151515815260200191505060405180910390f35b610335610796565b604051808215151515815260200191505060405180910390f35b34801561035b57600080fd5b50610364610b59565b604051808215151515815260200191505060405180910390f35b60018054600181600116156101000203166002900480601f0160208091040260200160405190810160405280929190818152602001828054600181600116156101000203166002900480156104145780601f106103e957610100808354040283529160200191610414565b820191906000526020600020905b8154815290600101906020018083116103f757829003601f168201915b505050505081565b60045481565b600360009054906101000a900460ff1681565b60008060000160008373ffffffffffffffffffffffffffffffffffffffff1673ffffffffffffffffffffffffffffffffffffffff168152602001908152602001600020549050919050565b600560009054906101000a900473ffffffffffffffffffffffffffffffffffffffff1681565b60028054600181600116156101000203166002900480601f01602080910402602001604051908101604052809291908181526020018280546001816001161561010002031660029004801561053c5780601f106105115761010080835404028352916020019161053c565b820191906000526020600020905b81548152906001019060200180831161051f57829003601f168201915b505050505081565b6000808273__Safemath______________________________63165c4a169091600360009054906101000a900460ff1660ff16600a0a6040518363ffffffff167c0100000000000000000000000000000000000000000000000000000000028152600401808381526020018281526020019250505060206040518083038186803b1580156105d157600080fd5b505af41580156105e5573d6000803e3d6000fd5b505050506040513d60208110156105fb57600080fd5b8101908080519060200190929190505050905073__ERC20Transfer_________________________63190e28ce60003387856040518563ffffffff167c0100000000000000000000000000000000000000000000000000000000028152600401808581526020018473ffffffffffffffffffffffffffffffffffffffff1673ffffffffffffffffffffffffffffffffffffffff1681526020018373ffffffffffffffffffffffffffffffffffffffff1673ffffffffffffffffffffffffffffffffffffffff16815260200182815260200194505050505060206040518083038186803b1580156106ea57600080fd5b505af41580156106fe573d6000803e3d6000fd5b505050506040513d602081101561071457600080fd5b8101908080519060200190929190505050508373ffffffffffffffffffffffffffffffffffffffff163373ffffffffffffffffffffffffffffffffffffffff167fddf252ad1be2c89b69c2b068fc378daa952ba7f163c4a11628f55a4df523b3ef836040518082815260200191505060405180910390a3600191505092915050565b600080600560009054906101000a900473ffffffffffffffffffffffffffffffffffffffff1673ffffffffffffffffffffffffffffffffffffffff163373ffffffffffffffffffffffffffffffffffffffff16141515156107f657600080fd5b60003411151561080557600080fd5b670de0b6b3a76400003481151561081857fe5b0473__Safemath______________________________63165c4a1690916103e86040518363ffffffff167c0100000000000000000000000000000000000000000000000000000000028152600401808381526020018281526020019250505060206040518083038186803b15801561088f57600080fd5b505af41580156108a3573d6000803e3d6000fd5b505050506040513d60208110156108b957600080fd5b810190808051906020019092919050505073__Safemath______________________________63165c4a169091600360009054906101000a900460ff1660ff16600a0a6040518363ffffffff167c0100000000000000000000000000000000000000000000000000000000028152600401808381526020018281526020019250505060206040518083038186803b15801561095357600080fd5b505af4158015610967573d6000803e3d6000fd5b505050506040513d602081101561097d57600080fd5b8101908080519060200190929190505050905073__ERC20Transfer_________________________63190e28ce6000600560009054906101000a900473ffffffffffffffffffffffffffffffffffffffff1633856040518563ffffffff167c0100000000000000000000000000000000000000000000000000000000028152600401808581526020018473ffffffffffffffffffffffffffffffffffffffff1673ffffffffffffffffffffffffffffffffffffffff1681526020018373ffffffffffffffffffffffffffffffffffffffff1673ffffffffffffffffffffffffffffffffffffffff16815260200182815260200194505050505060206040518083038186803b158015610a8e57600080fd5b505af4158015610aa2573d6000803e3d6000fd5b505050506040513d6020811015610ab857600080fd5b8101908080519060200190929190505050503373ffffffffffffffffffffffffffffffffffffffff16600560009054906101000a900473ffffffffffffffffffffffffffffffffffffffff1673ffffffffffffffffffffffffffffffffffffffff167fddf252ad1be2c89b69c2b068fc378daa952ba7f163c4a11628f55a4df523b3ef836040518082815260200191505060405180910390a3600191505090565b6000600560009054906101000a900473ffffffffffffffffffffffffffffffffffffffff1673ffffffffffffffffffffffffffffffffffffffff163373ffffffffffffffffffffffffffffffffffffffff16141515610bb757600080fd5b600560009054906101000a900473ffffffffffffffffffffffffffffffffffffffff1673ffffffffffffffffffffffffffffffffffffffff166108fc3073ffffffffffffffffffffffffffffffffffffffff16319081150290604051600060405180830381858888f19350505050158015610c36573d6000803e3d6000fd5b5060019050905600a165627a7a72305820eda2bb77c44cd5289794af802fce393e4a19c5675129b28866cd5a30610b029e0029",
  "source": "pragma solidity ^0.4.24;\n\nlibrary Safemath {\n  function add(uint _a, uint _b) public pure returns (uint){\n    // require(2**256 - 1 - _a > _b);\n    uint sum = _a + _b;\n    require(sum >= _a && sum >= _b);\n    return sum;\n  }\n\n  function subtract(uint _a, uint _b) public pure returns (uint){\n    require( _a >= _b );\n    return _a - _b;\n  }\n\n  function multiply(uint _a, uint _b) public pure returns (uint){\n    uint product = _a * _b;\n    require(product/_a == _b);\n\n    return product;\n  }\n\n  function divide(uint _a, uint _b) public pure returns (uint){\n    require( _b != 0 );\n    return _a / _b;\n  }\n}\n\nlibrary ERC20Transfer {\n  using Safemath for uint;\n\n  struct UserBalance{\n    mapping(address => uint256) balance;\n  }\n\n  function transferTokens(UserBalance storage self, address _from, address _to, uint _amount) public returns(bool) {\n    require(self.balance[_from] >= _amount);\n\n    self.balance[_from] -= _amount;\n    self.balance[_to] += _amount;\n    // self.balance[_from] = self.balance[_from].subtract(_amount);\n    // self.balance[_to]   = self.balance[_to].add(_amount);\n\n    return true;\n  }\n}\n\n// https://github.com/ethereum/EIPs/blob/master/EIPS/eip-20.md\ncontract ERC20God {\n  using Safemath for uint;\n\n  ERC20Transfer.UserBalance userBalance;\n\n  string public name;\n  string public symbol;\n  uint8 public decimals;\n  uint256 public totalSupply;\n\n  address public owner;\n\n  event Transfer(address indexed _from, address indexed _to, uint256 amount);\n\n  constructor(string _name, string _symbol, uint8 _decimals, uint256 _totalSupply) public {\n    owner       = msg.sender;\n    name        = _name;\n    symbol      = _symbol;\n    decimals    = _decimals;\n    totalSupply = _totalSupply.multiply(10**uint(decimals));\n    userBalance.balance[owner] = totalSupply;\n  }\n\n  modifier onlyOwner {\n    require(msg.sender == owner);\n    _;\n  }\n\n  modifier notOwner {\n    require(msg.sender != owner);\n    _;\n  }\n\n  function withdrawalEth() public onlyOwner returns(bool) {\n    owner.transfer(address(this).balance);\n    return true;\n  }\n\n  function tokenSale() public payable notOwner returns(bool) {\n    require(msg.value > 0);\n\n    // 1eth = 1000coin\n    uint256 tokenAmount = ((msg.value / 1 ether).multiply(1000)).multiply(10**uint(decimals));\n\n    ERC20Transfer.transferTokens(userBalance, owner, msg.sender, tokenAmount);\n    emit Transfer(owner, msg.sender, tokenAmount);\n\n    return true;\n  }\n\n  function transfer(address _to, uint256 _amount) public returns(bool) {\n    uint adjustedAmount = _amount.multiply(10**uint(decimals));\n\n    ERC20Transfer.transferTokens(userBalance, msg.sender, _to, adjustedAmount);\n    emit Transfer(msg.sender, _to, adjustedAmount);\n\n    return true;\n  }\n\n  function balanceOf(address _owner) public view returns(uint256) {\n    return userBalance.balance[_owner];\n  }\n}\n",
  "sourcePath": "/Users/huynguyen/code/smartcontract-temp/contracts/ERC20God.sol",
  "compiler": {
    "name": "solc",
    "version": "0.4.24+commit.e67f0147.Emscripten.clang"
  },
  "schemaVersion": "2.0.1",
  "updatedAt": "2018-11-07T01:21:08.269Z"
}