{
  "contractName": "ERC20Transfer",
  "abi": [
    {
      "constant": false,
      "inputs": [
        {
          "name": "self",
          "type": "ERC20Transfer.UserBalance storage"
        },
        {
          "name": "_from",
          "type": "address"
        },
        {
          "name": "_to",
          "type": "address"
        },
        {
          "name": "_amount",
          "type": "uint256"
        }
      ],
      "name": "transferTokens",
      "outputs": [
        {
          "name": "",
          "type": "bool"
        }
      ],
      "payable": false,
      "stateMutability": "nonpayable",
      "type": "function"
    }
  ],
  "bytecode": "0x6103e2610030600b82828239805160001a6073146000811461002057610022565bfe5b5030600052607381538281f3007300000000000000000000000000000000000000003014608060405260043610610058576000357c0100000000000000000000000000000000000000000000000000000000900463ffffffff168063190e28ce1461005d575b600080fd5b81801561006957600080fd5b506100d260048036038101908080359060200190929190803573ffffffffffffffffffffffffffffffffffffffff169060200190929190803573ffffffffffffffffffffffffffffffffffffffff169060200190929190803590602001909291905050506100ec565b604051808215151515815260200191505060405180910390f35b6000818560000160008673ffffffffffffffffffffffffffffffffffffffff1673ffffffffffffffffffffffffffffffffffffffff168152602001908152602001600020541015151561013e57600080fd5b8460000160008573ffffffffffffffffffffffffffffffffffffffff1673ffffffffffffffffffffffffffffffffffffffff1681526020019081526020016000205473__Safemath______________________________633ef5e4459091846040518363ffffffff167c0100000000000000000000000000000000000000000000000000000000028152600401808381526020018281526020019250505060206040518083038186803b1580156101f457600080fd5b505af4158015610208573d6000803e3d6000fd5b505050506040513d602081101561021e57600080fd5b81019080805190602001909291905050508560000160008673ffffffffffffffffffffffffffffffffffffffff1673ffffffffffffffffffffffffffffffffffffffff168152602001908152602001600020819055508460000160008473ffffffffffffffffffffffffffffffffffffffff1673ffffffffffffffffffffffffffffffffffffffff1681526020019081526020016000205473__Safemath______________________________63771602f79091846040518363ffffffff167c0100000000000000000000000000000000000000000000000000000000028152600401808381526020018281526020019250505060206040518083038186803b15801561032a57600080fd5b505af415801561033e573d6000803e3d6000fd5b505050506040513d602081101561035457600080fd5b81019080805190602001909291905050508560000160008573ffffffffffffffffffffffffffffffffffffffff1673ffffffffffffffffffffffffffffffffffffffff16815260200190815260200160002081905550600190509493505050505600a165627a7a72305820ed5c6caa6f9ad488219f61a0b42ac66fc331eaaa44fd8d4d09999ff658f8843d0029",
  "source": "pragma solidity ^0.4.24;\n\nimport { Safemath } from \"./Safemath.sol\";\n\nlibrary ERC20Transfer {\n  using Safemath for uint;\n\n  struct UserBalance{\n    mapping(address => uint256) balance;\n  }\n\n  function transferTokens(UserBalance storage self, address _from, address _to, uint _amount) public returns(bool) {\n    require(self.balance[_from] >= _amount);\n\n    // self.balance[_from] -= _amount;\n    // self.balance[_to] += _amount;\n    self.balance[_from] = self.balance[_from].subtract(_amount);\n    self.balance[_to]   = self.balance[_to].add(_amount);\n\n    return true;\n  }\n}\n",
  "sourcePath": "/Users/huynguyen/code/smartcontract-temp/contracts/ERC20Transfer.sol",
  "compiler": {
    "name": "solc",
    "version": "0.4.24+commit.e67f0147.Emscripten.clang"
  },
  "schemaVersion": "2.0.1",
  "updatedAt": "2018-11-07T20:19:51.602Z"
}