{
  "contractName": "ERC20Transfer",
  "abi": [
    {
      "constant": false,
      "inputs": [
        {
          "name": "self",
          "type": "ERC20Transfer.UserBalance storage"
        },
        {
          "name": "_from",
          "type": "address"
        },
        {
          "name": "_to",
          "type": "address"
        },
        {
          "name": "_amount",
          "type": "uint256"
        }
      ],
      "name": "transferTokens",
      "outputs": [
        {
          "name": "",
          "type": "bool"
        }
      ],
      "payable": false,
      "stateMutability": "nonpayable",
      "type": "function"
    }
  ],
  "bytecode": "0x610214610030600b82828239805160001a6073146000811461002057610022565bfe5b5030600052607381538281f3007300000000000000000000000000000000000000003014608060405260043610610058576000357c0100000000000000000000000000000000000000000000000000000000900463ffffffff168063190e28ce1461005d575b600080fd5b81801561006957600080fd5b506100d260048036038101908080359060200190929190803573ffffffffffffffffffffffffffffffffffffffff169060200190929190803573ffffffffffffffffffffffffffffffffffffffff169060200190929190803590602001909291905050506100ec565b604051808215151515815260200191505060405180910390f35b6000818560000160008673ffffffffffffffffffffffffffffffffffffffff1673ffffffffffffffffffffffffffffffffffffffff168152602001908152602001600020541015151561013e57600080fd5b818560000160008673ffffffffffffffffffffffffffffffffffffffff1673ffffffffffffffffffffffffffffffffffffffff16815260200190815260200160002060008282540392505081905550818560000160008573ffffffffffffffffffffffffffffffffffffffff1673ffffffffffffffffffffffffffffffffffffffff16815260200190815260200160002060008282540192505081905550600190509493505050505600a165627a7a72305820ec02edde47bfd7cabb1bfa7a647409a1d2a0b7582f59e6d2d2da74d3c1ca8bff0029",
  "source": "pragma solidity ^0.4.24;\n\nimport { Safemath } from \"./Safemath.sol\";\n\nlibrary ERC20Transfer {\n  using Safemath for uint;\n\n  struct UserBalance{\n    mapping(address => uint256) balance;\n  }\n\n  function transferTokens(UserBalance storage self, address _from, address _to, uint _amount) public returns(bool) {\n    require(self.balance[_from] >= _amount);\n\n    self.balance[_from] -= _amount;\n    self.balance[_to] += _amount;\n    // self.balance[_from] = self.balance[_from].subtract(_amount);\n    // self.balance[_to]   = self.balance[_to].add(_amount);\n\n    return true;\n  }\n}\n",
  "sourcePath": "/Users/huynguyen/code/smartcontract-temp/contracts/ERC20Transfer.sol",
  "compiler": {
    "name": "solc",
    "version": "0.4.24+commit.e67f0147.Emscripten.clang"
  },
  "schemaVersion": "2.0.1",
  "updatedAt": "2018-11-06T21:52:43.718Z"
}