{
  "contractName": "Safemath",
  "abi": [
    {
      "constant": true,
      "inputs": [
        {
          "name": "_a",
          "type": "uint256"
        },
        {
          "name": "_b",
          "type": "uint256"
        }
      ],
      "name": "add",
      "outputs": [
        {
          "name": "",
          "type": "uint256"
        }
      ],
      "payable": false,
      "stateMutability": "pure",
      "type": "function"
    },
    {
      "constant": true,
      "inputs": [
        {
          "name": "_a",
          "type": "uint256"
        },
        {
          "name": "_b",
          "type": "uint256"
        }
      ],
      "name": "subtract",
      "outputs": [
        {
          "name": "",
          "type": "uint256"
        }
      ],
      "payable": false,
      "stateMutability": "pure",
      "type": "function"
    },
    {
      "constant": true,
      "inputs": [
        {
          "name": "_a",
          "type": "uint256"
        },
        {
          "name": "_b",
          "type": "uint256"
        }
      ],
      "name": "multiply",
      "outputs": [
        {
          "name": "",
          "type": "uint256"
        }
      ],
      "payable": false,
      "stateMutability": "pure",
      "type": "function"
    },
    {
      "constant": true,
      "inputs": [
        {
          "name": "_a",
          "type": "uint256"
        },
        {
          "name": "_b",
          "type": "uint256"
        }
      ],
      "name": "divide",
      "outputs": [
        {
          "name": "",
          "type": "uint256"
        }
      ],
      "payable": false,
      "stateMutability": "pure",
      "type": "function"
    }
  ],
  "bytecode": "0x61023b610030600b82828239805160001a6073146000811461002057610022565bfe5b5030600052607381538281f3007300000000000000000000000000000000000000003014608060405260043610610079576000357c0100000000000000000000000000000000000000000000000000000000900463ffffffff168063165c4a161461007e5780633ef5e445146100bc578063771602f7146100fa578063f88e9fbf14610138575b600080fd5b6100a66004803603810190808035906020019092919080359060200190929190505050610176565b6040518082815260200191505060405180910390f35b6100e460048036038101908080359060200190929190803590602001909291905050506101a1565b6040518082815260200191505060405180910390f35b61012260048036038101908080359060200190929190803590602001909291905050506101bd565b6040518082815260200191505060405180910390f35b61016060048036038101908080359060200190929190803590602001909291905050506101ea565b6040518082815260200191505060405180910390f35b600080828402905082848281151561018a57fe5b0414151561019757600080fd5b8091505092915050565b60008183101515156101b257600080fd5b818303905092915050565b60008082840190508381101580156101d55750828110155b15156101e057600080fd5b8091505092915050565b60008082141515156101fb57600080fd5b818381151561020657fe5b049050929150505600a165627a7a72305820bab0dea664a53799432c094dd4a6ac19c2b644419cb5e2d1119ad936ab7e9b3a0029",
  "source": "pragma solidity ^0.4.24;\n\nlibrary Safemath {\n  function add(uint _a, uint _b) public pure returns (uint){\n    // require(2**256 - 1 - _a > _b);\n    uint sum = _a + _b;\n    require(sum >= _a && sum >= _b);\n    return sum;\n  }\n\n  function subtract(uint _a, uint _b) public pure returns (uint){\n    require( _a >= _b );\n    return _a - _b;\n  }\n\n  function multiply(uint _a, uint _b) public pure returns (uint){\n    uint product = _a * _b;\n    require(product/_a == _b);\n\n    return product;\n  }\n\n  function divide(uint _a, uint _b) public pure returns (uint){\n    require( _b != 0 );\n    return _a / _b;\n  }\n}\n",
  "sourcePath": "/Users/huynguyen/code/smartcontract-temp/contracts/Safemath.sol",
  "compiler": {
    "name": "solc",
    "version": "0.4.24+commit.e67f0147.Emscripten.clang"
  },
  "schemaVersion": "2.0.1",
  "updatedAt": "2018-11-06T21:52:43.722Z"
}